{
  "contractName": "FlamingoToken",
  "abi": [
    {
      "inputs": [
        {
          "internalType": "string",
          "name": "name_",
          "type": "string"
        },
        {
          "internalType": "string",
          "name": "symbol_",
          "type": "string"
        },
        {
          "internalType": "uint8",
          "name": "decimals_",
          "type": "uint8"
        },
        {
          "internalType": "uint256",
          "name": "totalSupply_",
          "type": "uint256"
        }
      ],
      "stateMutability": "nonpayable",
      "type": "constructor"
    },
    {
      "anonymous": false,
      "inputs": [
        {
          "indexed": true,
          "internalType": "address",
          "name": "owner",
          "type": "address"
        },
        {
          "indexed": true,
          "internalType": "address",
          "name": "spender",
          "type": "address"
        },
        {
          "indexed": false,
          "internalType": "uint256",
          "name": "value",
          "type": "uint256"
        }
      ],
      "name": "Approval",
      "type": "event"
    },
    {
      "anonymous": false,
      "inputs": [
        {
          "indexed": true,
          "internalType": "address",
          "name": "previousOwner",
          "type": "address"
        },
        {
          "indexed": true,
          "internalType": "address",
          "name": "newOwner",
          "type": "address"
        }
      ],
      "name": "OwnershipTransferred",
      "type": "event"
    },
    {
      "anonymous": false,
      "inputs": [
        {
          "indexed": true,
          "internalType": "address",
          "name": "user",
          "type": "address"
        },
        {
          "indexed": false,
          "internalType": "uint256",
          "name": "amount",
          "type": "uint256"
        },
        {
          "indexed": false,
          "internalType": "uint256",
          "name": "index",
          "type": "uint256"
        },
        {
          "indexed": false,
          "internalType": "uint256",
          "name": "timestamp",
          "type": "uint256"
        }
      ],
      "name": "Staked",
      "type": "event"
    },
    {
      "anonymous": false,
      "inputs": [
        {
          "indexed": true,
          "internalType": "address",
          "name": "from",
          "type": "address"
        },
        {
          "indexed": true,
          "internalType": "address",
          "name": "to",
          "type": "address"
        },
        {
          "indexed": false,
          "internalType": "uint256",
          "name": "value",
          "type": "uint256"
        }
      ],
      "name": "Transfer",
      "type": "event"
    },
    {
      "inputs": [],
      "name": "_decimals",
      "outputs": [
        {
          "internalType": "uint8",
          "name": "",
          "type": "uint8"
        }
      ],
      "stateMutability": "view",
      "type": "function",
      "constant": true
    },
    {
      "inputs": [],
      "name": "_name",
      "outputs": [
        {
          "internalType": "string",
          "name": "",
          "type": "string"
        }
      ],
      "stateMutability": "view",
      "type": "function",
      "constant": true
    },
    {
      "inputs": [],
      "name": "_symbol",
      "outputs": [
        {
          "internalType": "string",
          "name": "",
          "type": "string"
        }
      ],
      "stateMutability": "view",
      "type": "function",
      "constant": true
    },
    {
      "inputs": [],
      "name": "_totalSupply",
      "outputs": [
        {
          "internalType": "uint256",
          "name": "",
          "type": "uint256"
        }
      ],
      "stateMutability": "view",
      "type": "function",
      "constant": true
    },
    {
      "inputs": [
        {
          "internalType": "address",
          "name": "_staker",
          "type": "address"
        }
      ],
      "name": "hasStake",
      "outputs": [
        {
          "components": [
            {
              "internalType": "uint256",
              "name": "totalAmount",
              "type": "uint256"
            },
            {
              "components": [
                {
                  "internalType": "address",
                  "name": "user",
                  "type": "address"
                },
                {
                  "internalType": "uint256",
                  "name": "amount",
                  "type": "uint256"
                },
                {
                  "internalType": "uint256",
                  "name": "since",
                  "type": "uint256"
                },
                {
                  "internalType": "uint256",
                  "name": "claimable",
                  "type": "uint256"
                }
              ],
              "internalType": "struct Staking.Stake[]",
              "name": "stakes",
              "type": "tuple[]"
            }
          ],
          "internalType": "struct Staking.StakingSummary",
          "name": "",
          "type": "tuple"
        }
      ],
      "stateMutability": "view",
      "type": "function",
      "constant": true
    },
    {
      "inputs": [],
      "name": "owner",
      "outputs": [
        {
          "internalType": "address",
          "name": "",
          "type": "address"
        }
      ],
      "stateMutability": "view",
      "type": "function",
      "constant": true
    },
    {
      "inputs": [],
      "name": "renounceOwnership",
      "outputs": [],
      "stateMutability": "nonpayable",
      "type": "function"
    },
    {
      "inputs": [
        {
          "internalType": "address",
          "name": "newOwner",
          "type": "address"
        }
      ],
      "name": "transferOwnership",
      "outputs": [],
      "stateMutability": "nonpayable",
      "type": "function"
    },
    {
      "inputs": [],
      "name": "getOwner",
      "outputs": [
        {
          "internalType": "address",
          "name": "",
          "type": "address"
        }
      ],
      "stateMutability": "view",
      "type": "function",
      "constant": true
    },
    {
      "inputs": [
        {
          "internalType": "address",
          "name": "account",
          "type": "address"
        }
      ],
      "name": "balanceOf",
      "outputs": [
        {
          "internalType": "uint256",
          "name": "",
          "type": "uint256"
        }
      ],
      "stateMutability": "view",
      "type": "function",
      "constant": true
    },
    {
      "inputs": [
        {
          "internalType": "address",
          "name": "recipient",
          "type": "address"
        },
        {
          "internalType": "uint256",
          "name": "amount",
          "type": "uint256"
        }
      ],
      "name": "transfer",
      "outputs": [
        {
          "internalType": "bool",
          "name": "",
          "type": "bool"
        }
      ],
      "stateMutability": "nonpayable",
      "type": "function"
    },
    {
      "inputs": [
        {
          "internalType": "address",
          "name": "owner",
          "type": "address"
        },
        {
          "internalType": "address",
          "name": "spender",
          "type": "address"
        }
      ],
      "name": "allowance",
      "outputs": [
        {
          "internalType": "uint256",
          "name": "",
          "type": "uint256"
        }
      ],
      "stateMutability": "view",
      "type": "function",
      "constant": true
    },
    {
      "inputs": [
        {
          "internalType": "address",
          "name": "spender",
          "type": "address"
        },
        {
          "internalType": "uint256",
          "name": "amount",
          "type": "uint256"
        }
      ],
      "name": "approve",
      "outputs": [
        {
          "internalType": "bool",
          "name": "",
          "type": "bool"
        }
      ],
      "stateMutability": "nonpayable",
      "type": "function"
    },
    {
      "inputs": [
        {
          "internalType": "address",
          "name": "sender",
          "type": "address"
        },
        {
          "internalType": "address",
          "name": "recipient",
          "type": "address"
        },
        {
          "internalType": "uint256",
          "name": "amount",
          "type": "uint256"
        }
      ],
      "name": "transferFrom",
      "outputs": [
        {
          "internalType": "bool",
          "name": "",
          "type": "bool"
        }
      ],
      "stateMutability": "nonpayable",
      "type": "function"
    },
    {
      "inputs": [
        {
          "internalType": "address",
          "name": "spender",
          "type": "address"
        },
        {
          "internalType": "uint256",
          "name": "addedValue",
          "type": "uint256"
        }
      ],
      "name": "increaseAllowance",
      "outputs": [
        {
          "internalType": "bool",
          "name": "",
          "type": "bool"
        }
      ],
      "stateMutability": "nonpayable",
      "type": "function"
    },
    {
      "inputs": [
        {
          "internalType": "address",
          "name": "spender",
          "type": "address"
        },
        {
          "internalType": "uint256",
          "name": "subtractedValue",
          "type": "uint256"
        }
      ],
      "name": "decreaseAllowance",
      "outputs": [
        {
          "internalType": "bool",
          "name": "",
          "type": "bool"
        }
      ],
      "stateMutability": "nonpayable",
      "type": "function"
    },
    {
      "inputs": [
        {
          "internalType": "address",
          "name": "account",
          "type": "address"
        },
        {
          "internalType": "uint256",
          "name": "amount",
          "type": "uint256"
        }
      ],
      "name": "mint",
      "outputs": [
        {
          "internalType": "bool",
          "name": "",
          "type": "bool"
        }
      ],
      "stateMutability": "nonpayable",
      "type": "function"
    },
    {
      "inputs": [
        {
          "internalType": "address",
          "name": "account",
          "type": "address"
        },
        {
          "internalType": "uint256",
          "name": "amount",
          "type": "uint256"
        }
      ],
      "name": "burn",
      "outputs": [
        {
          "internalType": "bool",
          "name": "",
          "type": "bool"
        }
      ],
      "stateMutability": "nonpayable",
      "type": "function"
    }
  ],
  "bytecode": "0x60806040526103e86001553480156200001757600080fd5b50604051620015ab380380620015ab8339810160408190526200003a9162000294565b6200004e62000048620000ef565b620000f3565b60028054600101815560005283516200006f90600490602087019062000143565b5082516200008590600590602086019062000143565b506006805460ff191660ff8416179055600781905533600081815260086020526040808220849055517fddf252ad1be2c89b69c2b068fc378daa952ba7f163c4a11628f55a4df523b3ef90620000dd9085906200031b565b60405180910390a35050505062000377565b3390565b600080546001600160a01b038381166001600160a01b0319831681178455604051919092169283917f8be0079c531659141344cd1fd0a4f28419497f9722a3daafe3b4186f6b6457e09190a35050565b828054620001519062000324565b90600052602060002090601f016020900481019282620001755760008555620001c0565b82601f106200019057805160ff1916838001178555620001c0565b82800160010185558215620001c0579182015b82811115620001c0578251825591602001919060010190620001a3565b50620001ce929150620001d2565b5090565b5b80821115620001ce5760008155600101620001d3565b600082601f830112620001fa578081fd5b81516001600160401b038082111562000217576200021762000361565b6040516020601f8401601f19168201810183811183821017156200023f576200023f62000361565b604052838252858401810187101562000256578485fd5b8492505b838310156200027957858301810151828401820152918201916200025a565b838311156200028a57848185840101525b5095945050505050565b60008060008060808587031215620002aa578384fd5b84516001600160401b0380821115620002c1578586fd5b620002cf88838901620001e9565b95506020870151915080821115620002e5578485fd5b50620002f487828801620001e9565b935050604085015160ff811681146200030b578283fd5b6060959095015193969295505050565b90815260200190565b6002810460018216806200033957607f821691505b602082108114156200035b57634e487b7160e01b600052602260045260246000fd5b50919050565b634e487b7160e01b600052604160045260246000fd5b61122480620003876000396000f3fe608060405234801561001057600080fd5b50600436106101365760003560e01c80638da5cb5b116100b2578063b09f126611610081578063dd62ed3e11610066578063dd62ed3e14610257578063e73e14bf1461026a578063f2fde38b1461028a57610136565b8063b09f12661461023a578063d28d88521461024f57610136565b80638da5cb5b146101f95780639dc29fac14610201578063a457c2d714610214578063a9059cbb1461022757610136565b80633eaaf86b1161010957806370a08231116100ee57806370a08231146101c7578063715018a6146101da578063893d20e8146101e457610136565b80633eaaf86b1461019f57806340c10f19146101b457610136565b8063095ea7b31461013b57806323b872dd1461016457806332424aa314610177578063395093511461018c575b600080fd5b61014e610149366004610cb1565b61029d565b60405161015b9190610cee565b60405180910390f35b61014e610172366004610c76565b6102b3565b61017f61034f565b60405161015b9190611121565b61014e61019a366004610cb1565b610358565b6101a761038f565b60405161015b9190611118565b61014e6101c2366004610cb1565b610395565b6101a76101d5366004610c23565b6103e0565b6101e26103ff565b005b6101ec61044a565b60405161015b9190610cda565b6101ec610459565b61014e61020f366004610cb1565b610468565b61014e610222366004610cb1565b6104b3565b61014e610235366004610cb1565b6104ea565b6102426104f7565b60405161015b9190610cf9565b610242610585565b6101a7610265366004610c44565b610592565b61027d610278366004610c23565b6105bd565b60405161015b9190611098565b6101e2610298366004610c23565b61078e565b60006102aa3384846107ff565b50600192915050565b6001600160a01b03831660009081526009602090815260408083203384529091528120548211156102ff5760405162461bcd60e51b81526004016102f690610d4c565b60405180910390fd5b61030a8484846108b3565b6001600160a01b038416600090815260096020908152604080832033808552925290912054610345918691610340908690611186565b6107ff565b5060019392505050565b60065460ff1681565b3360008181526009602090815260408083206001600160a01b038716845290915281205490916102aa91859061034090869061112f565b60075481565b600061039f6109dd565b6001600160a01b03166103b0610459565b6001600160a01b0316146103d65760405162461bcd60e51b81526004016102f690610f06565b6102aa83836109e1565b6001600160a01b0381166000908152600860205260409020545b919050565b6104076109dd565b6001600160a01b0316610418610459565b6001600160a01b03161461043e5760405162461bcd60e51b81526004016102f690610f06565b6104486000610a97565b565b6000610454610459565b905090565b6000546001600160a01b031690565b60006104726109dd565b6001600160a01b0316610483610459565b6001600160a01b0316146104a95760405162461bcd60e51b81526004016102f690610f06565b6102aa8383610aff565b3360008181526009602090815260408083206001600160a01b038716845290915281205490916102aa918590610340908690611186565b60006102aa3384846108b3565b600580546105049061119d565b80601f01602080910402602001604051908101604052809291908181526020018280546105309061119d565b801561057d5780601f106105525761010080835404028352916020019161057d565b820191906000526020600020905b81548152906001019060200180831161056057829003601f168201915b505050505081565b600480546105049061119d565b6001600160a01b03918216600090815260096020908152604080832093909416825291909152205490565b6105c5610bf2565b600080604051806040016040528060008152602001600260036000886001600160a01b03166001600160a01b03168152602001908152602001600020548154811061062057634e487b7160e01b600052603260045260246000fd5b9060005260206000209060020201600101805480602002602001604051908101604052809291908181526020016000905b828210156106ae576000848152602090819020604080516080810182526004860290920180546001600160a01b03168352600180820154848601526002820154928401929092526003015460608301529083529092019101610651565b505050915250905060005b8160200151518110156107845760006106fc836020015183815181106106ef57634e487b7160e01b600052603260045260246000fd5b6020026020010151610bb1565b9050808360200151838151811061072357634e487b7160e01b600052603260045260246000fd5b602002602001015160600181815250508260200151828151811061075757634e487b7160e01b600052603260045260246000fd5b6020026020010151602001518461076e919061112f565b935061077d905060018261112f565b90506106b9565b5090815292915050565b6107966109dd565b6001600160a01b03166107a7610459565b6001600160a01b0316146107cd5760405162461bcd60e51b81526004016102f690610f06565b6001600160a01b0381166107f35760405162461bcd60e51b81526004016102f690610da9565b6107fc81610a97565b50565b6001600160a01b0383166108255760405162461bcd60e51b81526004016102f690610e4c565b6001600160a01b03821661084b5760405162461bcd60e51b81526004016102f69061103b565b6001600160a01b0380841660008181526009602090815260408083209487168084529490915290819020849055517f8c5be1e5ebec7d5bd14f71427d1e84f3dd0314c0f7b2291e5b200ac8c7c3b925906108a6908590611118565b60405180910390a3505050565b6001600160a01b0383166108d95760405162461bcd60e51b81526004016102f690610f81565b6001600160a01b0382166108ff5760405162461bcd60e51b81526004016102f690610f3b565b6001600160a01b0383166000908152600860205260409020548111156109375760405162461bcd60e51b81526004016102f690610ea9565b6001600160a01b03831660009081526008602052604090205461095b908290611186565b6001600160a01b03808516600090815260086020526040808220939093559084168152205461098b90829061112f565b6001600160a01b0380841660008181526008602052604090819020939093559151908516907fddf252ad1be2c89b69c2b068fc378daa952ba7f163c4a11628f55a4df523b3ef906108a6908590611118565b3390565b6001600160a01b038216610a075760405162461bcd60e51b81526004016102f690610fde565b80600754610a15919061112f565b6007556001600160a01b038216600090815260086020526040902054610a3c90829061112f565b6001600160a01b0383166000818152600860205260408082209390935591519091907fddf252ad1be2c89b69c2b068fc378daa952ba7f163c4a11628f55a4df523b3ef90610a8b908590611118565b60405180910390a35050565b600080546001600160a01b038381167fffffffffffffffffffffffff0000000000000000000000000000000000000000831681178455604051919092169283917f8be0079c531659141344cd1fd0a4f28419497f9722a3daafe3b4186f6b6457e09190a35050565b6001600160a01b038216610b255760405162461bcd60e51b81526004016102f690610def565b6001600160a01b038216600090815260086020526040902054610b49908290611186565b6001600160a01b038316600090815260086020526040902055600754610b70908290611186565b6007556040516000906001600160a01b038416907fddf252ad1be2c89b69c2b068fc378daa952ba7f163c4a11628f55a4df523b3ef90610a8b908590611118565b60006001548260200151610e10846040015142610bce9190611186565b610bd89190611147565b610be29190611167565b610bec9190611147565b92915050565b604051806040016040528060008152602001606081525090565b80356001600160a01b03811681146103fa57600080fd5b600060208284031215610c34578081fd5b610c3d82610c0c565b9392505050565b60008060408385031215610c56578081fd5b610c5f83610c0c565b9150610c6d60208401610c0c565b90509250929050565b600080600060608486031215610c8a578081fd5b610c9384610c0c565b9250610ca160208501610c0c565b9150604084013590509250925092565b60008060408385031215610cc3578182fd5b610ccc83610c0c565b946020939093013593505050565b6001600160a01b0391909116815260200190565b901515815260200190565b6000602080835283518082850152825b81811015610d2557858101830151858201604001528201610d09565b81811115610d365783604083870101525b50601f01601f1916929092016040019392505050565b60208082526024908201527f466c616d696e676f3a207472616e73666572206578636565647320616c6c6f7760408201527f616e636500000000000000000000000000000000000000000000000000000000606082015260800190565b60208082526026908201527f4f776e61626c653a206e6577206f776e657220697320746865207a65726f206160408201526564647265737360d01b606082015260800190565b60208082526024908201527f466c616d696e676f3a206275726e2066726f6d20746865207a65726f2061646460408201527f7265737300000000000000000000000000000000000000000000000000000000606082015260800190565b60208082526027908201527f466c616d696e676f3a20617070726f76652066726f6d20746865207a65726f2060408201527f6164647265737300000000000000000000000000000000000000000000000000606082015260800190565b60208082526029908201527f466c616d696e676f3a205472616e7366657220616d6f756e742065786365656460408201527f732062616c616e63650000000000000000000000000000000000000000000000606082015260800190565b6020808252818101527f4f776e61626c653a2063616c6c6572206973206e6f7420746865206f776e6572604082015260600190565b60208082526026908201527f466c616d696e676f3a207472616e7366657220746f20746865207a65726f206160408201526564647265737360d01b606082015260800190565b60208082526028908201527f466c616d696e676f3a207472616e736665722066726f6d20746865207a65726f60408201527f2061646472657373000000000000000000000000000000000000000000000000606082015260800190565b60208082526022908201527f466c616d696e676f3a206d696e7420746f20746865207a65726f20616464726560408201527f7373000000000000000000000000000000000000000000000000000000000000606082015260800190565b60208082526025908201527f466c616d696e676f3a20617070726f766520746f20746865207a65726f20616460408201527f6472657373000000000000000000000000000000000000000000000000000000606082015260800190565b60006020808352606080840185518386015282860151604080818801528282518085526080945084890191508684019350875b8181101561110957845180516001600160a01b03168452888101518985015284810151858501528701518784015293870193918501916001016110cb565b50909998505050505050505050565b90815260200190565b60ff91909116815260200190565b60008219821115611142576111426111d8565b500190565b60008261116257634e487b7160e01b81526012600452602481fd5b500490565b6000816000190483118215151615611181576111816111d8565b500290565b600082821015611198576111986111d8565b500390565b6002810460018216806111b157607f821691505b602082108114156111d257634e487b7160e01b600052602260045260246000fd5b50919050565b634e487b7160e01b600052601160045260246000fdfea26469706673582212203fa85ddcc8299fd1ee9a0ebe83daf3403fa7a07be14a41b2004d57dcb52ec34264736f6c63430008000033",
  "immutableReferences": {},
  "source": "// SPDX-License-Identifier: MIT\npragma solidity ^0.8.0;\n\nimport \"./Context.sol\";\nimport \"./Ownable.sol\";\nimport \"./Staking.sol\";\n\n\ncontract FlamingoToken is Context, Ownable, Staking {\n\n  /**\n   * @dev Public State Variables will automatically creates getter \n   * functions instead of hard coding relative functions\n   */\n  string public _name;\n  string public _symbol;\n  uint8 public _decimals;\n  uint256 public _totalSupply;\n\n  mapping(address => uint256) private _balances;\n\n  /**\n   * @dev mapping spender address over mapping of owner address\n   * so spender can spend on behalf of owner\n   * and be deductible from _allowance\n   */\n  mapping(address => mapping(address => uint256)) private _allowances;\n\n  /**\n   * @notice emitted after each time token has been moved around\n   */\n  event Transfer (address indexed from, address indexed to, uint256 value);\n\n  /**\n   * @notice  emitted on each approval \n   */\n  event Approval ( address indexed owner, address indexed spender, uint256 value);\n\n  \n\n  constructor(string memory name_, string memory symbol_, uint8 decimals_, uint256 totalSupply_) {\n    _name = name_;\n    _symbol = symbol_;\n    _decimals = decimals_;\n    _totalSupply = totalSupply_;\n    _balances[msg.sender] = _totalSupply;\n    \n\n    emit Transfer(address(0), msg.sender, _totalSupply);\n  }\n\n\n  function getOwner() external view returns (address) {\n    return owner();\n  }\n\n \n  function balanceOf(address account) external view returns (uint256) {\n    return _balances[account];\n  }\n\n  /**\n   * @dev See {BEP20-transfer}.\n   *\n   * Requirements:\n   * - `recipient` cannot be the zero address.\n   * - the caller must have a balance of at least `amount`.\n   */\n  function transfer(address recipient, uint256 amount) external returns (bool) {\n    _transfer(msg.sender, recipient, amount);\n    return true;\n  }\n\n  /**\n   * @dev See {BEP20-allowance}.\n   */\n  function allowance(address owner, address spender) external view returns (uint256) {\n    return _allowances[owner][spender];\n  }\n\n  /**\n   * @dev See {BEP20-approve}.\n   *\n   * Requirements:\n   * - `spender` cannot be the zero address.\n   */\n  function approve(address spender, uint256 amount) external returns (bool) {\n    _approve(msg.sender, spender, amount);\n    return true;\n  }\n\n  /**\n   * @dev See {BEP20-transferFrom}.\n   *\n   * Emits an {Approval} event indicating the updated allowance. This is not\n   * required by the EIP. See the note at the beginning of {BEP20};\n   *\n   * Requirements:\n   * - `sender` and `recipient` cannot be the zero address.\n   * - `sender` must have a balance of at least `amount`.\n   * - the caller must have allowance for `sender`'s tokens of at least\n   * `amount`.\n   */\n  function transferFrom(address sender, address recipient, uint256 amount) external returns (bool) {\n    require(_allowances[sender][msg.sender] >= amount, \"Flamingo: transfer exceeds allowance\");\n    _transfer(sender, recipient, amount);\n    _approve( sender, msg.sender, _allowances[sender][msg.sender] - amount);\n    return true;\n  }\n\n  /**\n   * @dev Atomically increases the allowance granted to `spender` by the caller.\n   *\n   * This is an alternative to {approve} that can be used as a mitigation for\n   * problems described in {BEP20-approve}.\n   *\n   * Emits an {Approval} event indicating the updated allowance.\n   *\n   * Requirements:\n   * - `spender` cannot be the zero address.\n   */\n  function increaseAllowance(address spender, uint256 addedValue) public returns (bool) {\n    _approve(msg.sender, spender, _allowances[msg.sender][spender] + addedValue);\n    return true;\n  }\n\n  /**\n   * @dev Atomically decreases the allowance granted to `spender` by the caller.\n   *\n   * This is an alternative to {approve} that can be used as a mitigation for\n   * problems described in {BEP20-approve}.\n   *\n   * Emits an {Approval} event indicating the updated allowance.\n   *\n   * Requirements:\n   * - `spender` cannot be the zero address.\n   * - `spender` must have allowance for the caller of at least\n   * `subtractedValue`.\n   */\n  function decreaseAllowance(address spender, uint256 subtractedValue) public returns (bool) {\n    _approve(msg.sender, spender, _allowances[msg.sender][spender] - subtractedValue);\n    return true;\n  }\n\n  /**\n   * @dev Creates `amount` tokens and assigns them to `msg.sender`, increasing\n   * the total supply.\n   *\n   * Requirements\n   * - `msg.sender` must be the token owner\n   * - `_mintable` must be true\n   */\n  function mint(address account, uint256 amount) public onlyOwner returns (bool) {\n    _mint(account, amount);\n    return true;\n  }\n\n  /**\n   * @dev Burn `amount` tokens and decreasing the total supply.\n   */\n  function burn(address account, uint256 amount) public onlyOwner returns (bool) {\n    _burn(account, amount);\n    return true;\n  }\n\n  /**\n   * @dev Moves tokens `amount` from `sender` to `recipient`.\n   *\n   * This is internal function is equivalent to {transfer}, and can be used to\n   * e.g. implement automatic token fees, slashing mechanisms, etc.\n   *\n   * Emits a {Transfer} event.\n   *\n   * Requirements:\n   * - `sender` cannot be the zero address.\n   * - `recipient` cannot be the zero address.\n   * - `sender` must have a balance of at least `amount`.\n   */\n  function _transfer(address sender, address recipient, uint256 amount) internal {\n    require(sender != address(0), \"Flamingo: transfer from the zero address\");\n    require(recipient != address(0), \"Flamingo: transfer to the zero address\");\n    require(_balances[sender] >= amount, \"Flamingo: Transfer amount exceeds balance\");\n    _balances[sender] = _balances[sender] - amount;\n    _balances[recipient] = _balances[recipient] + amount;\n      \n    emit Transfer(sender, recipient, amount);\n  }\n\n  /**\n   * @dev Sets `amount` as the allowance of `spender` over the `owner`s tokens.\n   *\n   * This is internal function is equivalent to `approve`, and can be used to\n   * e.g. set automatic allowances for certain subsystems, etc.\n   *\n   * Emits an {Approval} event.\n   *\n   * Requirements:\n   * - `owner` cannot be the zero address.\n   * - `spender` cannot be the zero address.\n   */\n  function _approve(address owner, address spender, uint256 amount) internal {\n    require(owner != address(0), \"Flamingo: approve from the zero address\");\n    require(spender != address(0), \"Flamingo: approve to the zero address\");\n    _allowances[owner][spender] = amount;\n    \n    emit Approval(owner, spender, amount);\n  }\n\n  /** @dev Creates `amount` tokens and assigns them to `account`, increasing\n   * the total supply.\n   *\n   * Emits a {Transfer} event with `from` set to the zero address.\n   *\n   * Requirements\n   *  - `to` cannot be the zero address.\n   */\n  function _mint(address account, uint256 amount) internal {\n    require(account != address(0), \"Flamingo: mint to the zero address\");\n    _totalSupply = _totalSupply + amount;\n    _balances[account] = _balances[account] + amount;\n    \n    emit Transfer(address(0), account, amount);\n  }\n\n  /**\n   * @dev Destroys `amount` tokens from `account`, reducing the\n   * total supply.\n   *\n   * Emits a {Transfer} event with `to` set to the zero address.\n   *\n   * Requirements:\n   * - `account` cannot be the zero address.\n   * - `account` must have at least `amount` tokens.\n   */\n  function _burn(address account, uint256 amount) internal {\n    require(account != address(0), \"Flamingo: burn from the zero address\");\n    require(amount >= amount, \"Flamingo: Burn amount excceds balance\");\n    _balances[account] = _balances[account] - amount;\n    _totalSupply = _totalSupply - amount;\n    \n    emit Transfer(account, address(0), amount);\n  }\n}",
  "sourcePath": "R:/GitHubSasha/Flamingo-Token/contracts/FlamingoToken.sol",
  "compiler": {
    "name": "solc",
    "version": "0.8.0+commit.c7dfd78e.Emscripten.clang"
  },
  "schemaVersion": "3.3.4",
  "updatedAt": "2021-08-29T02:48:34.977Z",
  "networkType": "ethereum",
  "devdoc": {
    "kind": "dev",
    "methods": {
      "allowance(address,address)": {
        "details": "See {BEP20-allowance}."
      },
      "approve(address,uint256)": {
        "details": "See {BEP20-approve}. Requirements: - `spender` cannot be the zero address."
      },
      "burn(address,uint256)": {
        "details": "Burn `amount` tokens and decreasing the total supply."
      },
      "decreaseAllowance(address,uint256)": {
        "details": "Atomically decreases the allowance granted to `spender` by the caller. This is an alternative to {approve} that can be used as a mitigation for problems described in {BEP20-approve}. Emits an {Approval} event indicating the updated allowance. Requirements: - `spender` cannot be the zero address. - `spender` must have allowance for the caller of at least `subtractedValue`."
      },
      "hasStake(address)": {
        "details": "hasStake is used to check if a account has stakes and the total amount  along with all the seperate stakes"
      },
      "increaseAllowance(address,uint256)": {
        "details": "Atomically increases the allowance granted to `spender` by the caller. This is an alternative to {approve} that can be used as a mitigation for problems described in {BEP20-approve}. Emits an {Approval} event indicating the updated allowance. Requirements: - `spender` cannot be the zero address."
      },
      "mint(address,uint256)": {
        "details": "Creates `amount` tokens and assigns them to `msg.sender`, increasing the total supply. Requirements - `msg.sender` must be the token owner - `_mintable` must be true"
      },
      "owner()": {
        "details": "Returns the address of the current owner."
      },
      "renounceOwnership()": {
        "details": "Leaves the contract without owner. It will not be possible to call `onlyOwner` functions anymore. Can only be called by the current owner. NOTE: Renouncing ownership will leave the contract without an owner, thereby removing any functionality that is only available to the owner."
      },
      "transfer(address,uint256)": {
        "details": "See {BEP20-transfer}. Requirements: - `recipient` cannot be the zero address. - the caller must have a balance of at least `amount`."
      },
      "transferFrom(address,address,uint256)": {
        "details": "See {BEP20-transferFrom}. Emits an {Approval} event indicating the updated allowance. This is not required by the EIP. See the note at the beginning of {BEP20}; Requirements: - `sender` and `recipient` cannot be the zero address. - `sender` must have a balance of at least `amount`. - the caller must have allowance for `sender`'s tokens of at least `amount`."
      },
      "transferOwnership(address)": {
        "details": "Transfers ownership of the contract to a new account (`newOwner`). Can only be called by the current owner."
      }
    },
    "stateVariables": {
      "_allowances": {
        "details": "mapping spender address over mapping of owner address so spender can spend on behalf of owner and be deductible from _allowance"
      },
      "_name": {
        "details": "Public State Variables will automatically creates getter  functions instead of hard coding relative functions"
      }
    },
    "version": 1
  },
  "userdoc": {
    "events": {
      "Approval(address,address,uint256)": {
        "notice": "emitted on each approval "
      },
      "Transfer(address,address,uint256)": {
        "notice": "emitted after each time token has been moved around"
      }
    },
    "kind": "user",
    "methods": {},
    "version": 1
  }
}