{
  "contractName": "Staking",
  "abi": [
    {
      "inputs": [],
      "stateMutability": "nonpayable",
      "type": "constructor"
    },
    {
      "anonymous": false,
      "inputs": [
        {
          "indexed": true,
          "internalType": "address",
          "name": "user",
          "type": "address"
        },
        {
          "indexed": false,
          "internalType": "uint256",
          "name": "amount",
          "type": "uint256"
        },
        {
          "indexed": false,
          "internalType": "uint256",
          "name": "index",
          "type": "uint256"
        },
        {
          "indexed": false,
          "internalType": "uint256",
          "name": "timestamp",
          "type": "uint256"
        }
      ],
      "name": "Staked",
      "type": "event"
    },
    {
      "inputs": [
        {
          "internalType": "address",
          "name": "_staker",
          "type": "address"
        }
      ],
      "name": "hasStake",
      "outputs": [
        {
          "components": [
            {
              "internalType": "uint256",
              "name": "totalAmount",
              "type": "uint256"
            },
            {
              "components": [
                {
                  "internalType": "address",
                  "name": "user",
                  "type": "address"
                },
                {
                  "internalType": "uint256",
                  "name": "amount",
                  "type": "uint256"
                },
                {
                  "internalType": "uint256",
                  "name": "since",
                  "type": "uint256"
                },
                {
                  "internalType": "uint256",
                  "name": "claimable",
                  "type": "uint256"
                }
              ],
              "internalType": "struct Staking.Stake[]",
              "name": "stakes",
              "type": "tuple[]"
            }
          ],
          "internalType": "struct Staking.StakingSummary",
          "name": "",
          "type": "tuple"
        }
      ],
      "stateMutability": "view",
      "type": "function"
    }
  ],
  "bytecode": "0x60806040526103e860005534801561001657600080fd5b50600180548101815560005261042d806100316000396000f3fe608060405234801561001057600080fd5b506004361061002b5760003560e01c8063e73e14bf14610030575b600080fd5b61004361003e3660046102ab565b610059565b60405161005091906102e6565b60405180910390f35b610061610291565b6000806040518060400160405280600081526020016001600260008873ffffffffffffffffffffffffffffffffffffffff1673ffffffffffffffffffffffffffffffffffffffff16815260200190815260200160002054815481106100d657634e487b7160e01b600052603260045260246000fd5b9060005260206000209060020201600101805480602002602001604051908101604052809291908181526020016000905b828210156101715760008481526020908190206040805160808101825260048602909201805473ffffffffffffffffffffffffffffffffffffffff168352600180820154848601526002820154928401929092526003015460608301529083529092019101610107565b505050915250905060005b8160200151518110156102475760006101bf836020015183815181106101b257634e487b7160e01b600052603260045260246000fd5b6020026020010151610251565b905080836020015183815181106101e657634e487b7160e01b600052603260045260246000fd5b602002602001015160600181815250508260200151828151811061021a57634e487b7160e01b600052603260045260246000fd5b602002602001015160200151846102319190610373565b93506102409050600182610373565b905061017c565b5090815292915050565b600080548260200151610e1084604001514261026d91906103ca565b610277919061038b565b61028191906103ab565b61028b919061038b565b92915050565b604051806040016040528060008152602001606081525090565b6000602082840312156102bc578081fd5b813573ffffffffffffffffffffffffffffffffffffffff811681146102df578182fd5b9392505050565b60006020808352606080840185518386015282860151604080818801528282518085526080945084890191508684019350875b81811015610364578451805173ffffffffffffffffffffffffffffffffffffffff16845288810151898501528481015185850152870151878401529387019391850191600101610319565b50909998505050505050505050565b60008219821115610386576103866103e1565b500190565b6000826103a657634e487b7160e01b81526012600452602481fd5b500490565b60008160001904831182151516156103c5576103c56103e1565b500290565b6000828210156103dc576103dc6103e1565b500390565b634e487b7160e01b600052601160045260246000fdfea2646970667358221220205eb0963b8965a19066a89cd9d5c7e4444e5ea33111a909bcda96109f357fe064736f6c63430008000033",
  "immutableReferences": {},
  "source": "// SPDX-License-Identifier: MIT\npragma solidity ^0.8.0;\n\n/**\n * @dev Staking is a contract who is ment to be inherited by other\n * contracts to have staking capabilities\n */\n\ncontract Staking {\n\n  /**\n   * @dev storing each stake info. where user is the owner of the stake\n   * amount is the stake value, since is a timestamp when staking begins,\n   * and claimable is the  accumulated staking rewards*/\n  struct Stake{\n    address user;\n    uint256 amount;\n    uint256 since;\n    uint256 claimable;\n  }\n\n  /**\n   * @dev Stakers with active Stakes\n   */\n  struct Stakeholder{\n    address user;\n    Stake[] address_stakes;\n  }\n\n  /**\n   * @dev Gives a Snapshot of StakingSummary of a specific account\n   */\n  struct StakingSummary{\n    uint256 totalAmount;\n    Stake[] stakes;\n  }\n\n  /**\n   * @dev rewardPerHour is 0.1% for each staked token\n   */\n  uint256 internal rewardPerHour = 1000;\n  /**\n   * @dev an array of all stakes executed in the contract by all stakeholers\n   */\n  Stakeholder[] internal stakeholders;\n\n  /**\n   * @dev mapping the staker address(key/index) to the Stake in the stakes array\n  */\n  mapping (address => uint256) internal stakes;\n\n  event Staked(address indexed user, uint256 amount, uint index, uint256 timestamp);\n\n  constructor() {\n    stakeholders.push();\n  }\n\n  function _addStakeholder(address staker) internal returns (uint256) {\n    // Push an empty item to the array to make space for stakholder\n    stakeholders.push();\n    // Calculate the index of the last item in the array\n    uint userIndex = stakeholders.length - 1;\n    // Assign address to the new stakeholder\n    stakeholders[userIndex].user = staker;\n    // add the index to the stakeholders\n    stakes[staker] = userIndex;\n    return userIndex;\n  }\n  /**\n   * @dev _Stake is used to make a stake for an sender. It will remove the amount \n   * staked from the stakers account and place those tokens inside a stake container StakeID \n   */\n  function _stake(uint256 _amount) internal{\n    // Simple check so that user does not stake 0\n    require(_amount > 0, \"Cannot stake nothing\");\n    // Mappings in solidity creates all values, but empty, so we can just check the address\n    uint256 index = stakes[msg.sender];\n    // block.timestamp = timestamp of the current block in seconds since the epoch\n    uint256 timestamp = block.timestamp;\n    // See if the staker already has a staked index or if its the first time\n    if(index == 0){\n      // This stakeholder stakes for the first time\n      // We need to add him to the stakeHolders and also map it into the Index of the stakes\n      // The index returned will be the index of the stakeholder in the stakeholders array\n      index = _addStakeholder(msg.sender);\n    }\n    // Use the index to push a new Stake\n    // push a newly created Stake with the current block timestamp.\n    stakeholders[index].address_stakes.push(Stake(msg.sender, _amount, timestamp,0));\n    // Emit an event that the stake has occured\n    emit Staked(msg.sender, _amount, index,timestamp);\n  }\n\n  /**\n   * @dev calculateStakeReward is used to calculate how much a user should be rewarded for \n   * their stakes and the duration the stake has been active\n   */\n  function calculateStakeReward(Stake memory _current_stake) internal view returns(uint256){\n    // First calculate how long the stake has been active\n    // Use current seconds since epoch - the seconds since epoch the stake was made\n    // The output will be duration in SECONDS ,\n    // We will reward the user 0.1% per Hour So thats 0.1% per 3600 seconds\n    // the alghoritm is  seconds = block.timestamp - stake seconds (block.timestap - _stake.since)\n    // hours = Seconds / 3600 (seconds /3600) 3600 is an variable in Solidity names hours\n    // we then multiply each token by the hours staked , then divide by the rewardPerHour rate \n    return (((block.timestamp - _current_stake.since) / 1 hours) * _current_stake.amount) / rewardPerHour;\n  }\n\n  /**\n   * @notice\n   * withdrawStake takes in an amount and a index of the stake and will remove tokens from that stake\n   * Notice index of the stake is the users stake counter, starting at 0 for the first stake\n   * Will return the amount to MINT onto the acount\n   * Will also calculateStakeReward and reset timer\n   */\n  function _withdrawStake(uint256 amount, uint256 index) internal returns(uint256){\n    // Grab user_index which is the index to use to grab the Stake[]\n    uint256 user_index = stakes[msg.sender];\n    Stake memory current_stake = stakeholders[user_index].address_stakes[index];\n    require(current_stake.amount >= amount, \"Staking: Cannot withdraw more than you have staked\");\n\n    // Calculate available Reward first before we start modifying data\n    uint256 reward = calculateStakeReward(current_stake);\n    // Remove by subtracting the money unstaked \n    current_stake.amount = current_stake.amount - amount;\n    // If stake is empty, 0, then remove it from the array of stakes\n    if(current_stake.amount == 0){\n      delete stakeholders[user_index].address_stakes[index];\n    }else {\n      // If not empty then replace the value of it\n      stakeholders[user_index].address_stakes[index].amount = current_stake.amount;\n      // Reset timer of stake\n      stakeholders[user_index].address_stakes[index].since = block.timestamp;\n    }\n    return amount+reward;\n  }\n\n  /**\n   * @dev hasStake is used to check if a account has stakes and the total amount \n   * along with all the seperate stakes\n   */\n  function hasStake(address _staker) public view returns(StakingSummary memory){\n    uint256 totalStakeAmount;\n    StakingSummary memory summary = StakingSummary(0, stakeholders[stakes[_staker]].address_stakes);\n    for (uint256 s=0; s< summary.stakes.length; s+= 1){\n      uint256 availableRewards = calculateStakeReward(summary.stakes[s]);\n      summary.stakes[s].claimable = availableRewards;\n      totalStakeAmount = totalStakeAmount + summary.stakes[s].amount;\n    }\n    summary.totalAmount = totalStakeAmount;\n    return summary;\n  }\n\n} ",
  "sourcePath": "R:\\GitHubSasha\\Flamingo-Token\\contracts\\Staking.sol",
  "compiler": {
    "name": "solc",
    "version": "0.8.0+commit.c7dfd78e.Emscripten.clang"
  },
  "schemaVersion": "3.3.4",
  "updatedAt": "2021-08-29T02:46:36.921Z",
  "devdoc": {
    "details": "Staking is a contract who is ment to be inherited by other contracts to have staking capabilities",
    "kind": "dev",
    "methods": {
      "hasStake(address)": {
        "details": "hasStake is used to check if a account has stakes and the total amount  along with all the seperate stakes"
      }
    },
    "stateVariables": {
      "rewardPerHour": {
        "details": "rewardPerHour is 0.1% for each staked token"
      },
      "stakeholders": {
        "details": "an array of all stakes executed in the contract by all stakeholers"
      },
      "stakes": {
        "details": "mapping the staker address(key/index) to the Stake in the stakes array"
      }
    },
    "version": 1
  },
  "userdoc": {
    "kind": "user",
    "methods": {},
    "version": 1
  }
}